:020000040000FA
:10000000103F0020F902000001030000030300007C
:1000100005030000070300000903000000000000C2
:100020000000000000000000000000000B030000C2
:100030000D030000000000000F030000110300008A
:100040002128000075280000752D00008929000076
:1000500013030000130300006D0A000013030000E7
:10006000352D0000130300001303000013030000EC
:100070001303000013030000130300001303000028
:1000800013030000ED280000130300001303000019
:10009000252A0000130300001303000013030000CF
:1000A00013030000130300004D2D00001303000094
:1000B0001303000013030000000000000000000014
:1000C00013030000130300001303000013030000D8
:1000D00013030000130300001303000000000000DE
:1000E0000000000000000000000000000000000010
:1000F0000000000000000000000000000000000000
:1001000000000000000000000000000000000000EF
:1001100000000000000000000000000000000000DF
:1001200000000000000000000000000000000000CF
:1001300000000000000000000000000000000000BF
:1001400000000000000000000000000000000000AF
:10015000000000000000000000000000000000009F
:10016000000000000000000000000000000000008F
:10017000000000000000000000000000000000007F
:10018000000000000000000000000000000000006F
:10019000000000000000000000000000000000005F
:1001A000000000000000000000000000000000004F
:1001B000000000000000000000000000000000003F
:1001C000000000000000000000000000000000002F
:1001D000000000000000000000000000000000001F
:1001E000000000000000000000000000000000000F
:1001F00000000000000000000000000000000000FF
:10020000DFF80CD000F0F4FB00480047ED50000090
:10021000103F002030B4044654E8000F0D4644E877
:100220000053002BF8D1156030BC704730B4044641
:1002300054E8000F40EA010544E80053002BF7D1D1
:10024000156030BC704730B4044654E8000F00EA33
:10025000010544E80053002BF7D1156030BC70470E
:1002600030B4044654E8000F80EA010544E8005326
:10027000002BF7D1156030BC704730B4044654E809
:10028000000F00EB010544E80053002BF7D1156087
:1002900030BC704730B4044654E8000FA0EB0105B1
:1002A00044E80053002BF7D1156030BC704770B4A0
:1002B00004464FF0000054E8006F0D68AE4207BFDF
:1002C00044E80023012044E800630E60002B1CBFBB
:1002D0000020F0E770BC704730B4044654E8000FCB
:1002E00088422CBF451A054644E80053002BF5D13F
:1002F000156030BC7047000006488047064800473C
:10030000FEE7FEE7FEE7FEE7FEE7FEE7FEE7FEE7C5
:10031000FEE7FEE79D2A0000010200002DE9F05FE4
:100320000546002092469B46884606468146402464
:100330001BE0284641464746224600F02FF8534628
:100340005A46C01A914110D311461846224600F071
:1003500016F82D1A67EB01084F46224601200021AE
:1003600000F00DF817EB00094E41201EA4F1010426
:10037000DFDC484631462A464346BDE8F09F202A46
:1003800004DB203A00FA02F1002070479140C2F1EC
:10039000200320FA03F3194390407047202A04DB1E
:1003A000203A21FA02F00021704721FA02F3D040EE
:1003B000C2F1200291400843194670470048704737
:1003C000A4B2000040EA01039B0703D009E008C97A
:1003D000121F08C0042AFAD203E011F8013B00F80A
:1003E000013B521EF9D27047D2B201E000F8012B56
:1003F000491EFBD270470022F6E710B513460A46A5
:1004000004461946FFF7F0FF204610BD421C10F8C5
:10041000011B0029FBD1801A704730B5044600202B
:10042000034600E05B1C934203D2E05CCD5C401BC2
:10043000F8D030BD2DE9FE4F804681EA0300C00FA1
:100440000C46009021F0004123F00045B8EB02007B
:10045000A94105D24046214690461C460B4602461D
:1004600023F00040104347D0270DC7F30A00C3F321
:100470000A510290401A019040286BDAC3F313002E
:1004800040F4801B0098924620B10023D2EB030A6F
:1004900063EB0B0B01985946C0F140025046FFF741
:1004A0006EFF06460D4650465946019A00F0A8F9DF
:1004B00010EB08006141002487EA115284EAE773D7
:1004C0001A4340D0009A62B3019A012A4FEA0752B8
:1004D00015DC001B61EB02014FF0004202EA0752FB
:1004E000CDE90042001C41F5801132462B4600F058
:1004F000DFF903B0BDE8F08F40462146F9E7001B65
:1005000061EB0201001C41F5801300185B412018CB
:10051000A2F5001747EB030140EAD570B6196D410B
:1005200011E06D084FEA360645EAC0754FEA0752FA
:10053000001B61EB0201001C41F5801149084FEAE4
:1005400030000019514132462B4603B0BDE8F04F50
:1005500000F09FB90098012240000023D0EB020276
:1005600063EBE073009821464FEAE074B8EB0000BB
:1005700061EB0401E9E783F000435BE781F00041B0
:1005800058E72DE9FE4F81EA030404F0004421F00E
:10059000004100944FF0000B23F0004350EA0104A7
:1005A0005ED052EA03045BD0C3F30A54C1F30A5588
:1005B0002C44A4F2F3340194A0FB0254C1F31301C0
:1005C00041F48011C3F3130343F4801301FB02448D
:1005D00000FB034E840A970A44EA815447EA835792
:1005E000A4FB076802958D0A05FB07854FEA932C4B
:1005F00004FB0C542705029D4FEA065847EA1637BC
:10060000B5EB08056EEB070C870E920E47EA8117D3
:1006100042EA8312A7FB0201B6EB0B0164EB000474
:100620002B0D43EA0C335E1844EB1C50DA4651465E
:10063000E7FB0201C5F313044FEA0B3343EA1453FB
:100640004FEA0432019C43EA0603A4F10C0402942D
:10065000009CCDE900B400F02BF903B0BDE8F08FA9
:1006600000200146F9E72DE9F04D81EA030404F08A
:10067000004B21F0004514464FF0000A23F00041E2
:1006800050EA050220D054EA01021DD0C5F30A57F2
:100690000246C5F31303C1F31300C1F30A5640F435
:1006A000801543F48013A7EB0608101BD64608F20A
:1006B000FD3873EB050002D308F1010801E0921840
:1006C0005B41B8F1000F03DA00200146BDE8F08D70
:1006D00000204FF48011064684460EE0171B73EB92
:1006E000050705D3121B63EB050306434CEA010C17
:1006F00049084FEA300092185B4150EA0107EDD1FA
:1007000052EA030012D082EA040083EA050108439A
:1007100005D0101BAB4106D20122002306E00022C7
:100720004FF0004302E06FF0010253101AEB060095
:100730004CEB085110EB0A0041EB0B01BDE8F04D0A
:1007400000F0A7B80EB5C10F80EAE0700844CA07F0
:10075000002140F233438DE80E000A460B4600F0BC
:10076000A7F803B000BD000030B5041E71F100040D
:1007700004DB4FF00044404264EB0101141E73F1AE
:10078000000405DB1C464FF00043524263EB0403B8
:100790008B4208BF824230BD30B5041E71F10004A7
:1007A00004DB4FF00044404264EB0101141E73F17E
:1007B000000405DB1C464FF00043524263EB040388
:1007C000994208BF904230BD01F0004330B421F09F
:1007D000004150EA010206D00A0DA2F56072C1F391
:1007E0001301002A02DC30BC00207047440F44EAA9
:1007F000C104C100E01830BC00EBC25000F012B8D8
:10080000202A06DBCB17203A41FA02F043EAE073D4
:1008100006E041FA02F3D040C2F1200291400843C1
:10082000194670470029A8BF7047401C490008BFFF
:1008300020F00100704710B4B0FA80FC00FA0CF010
:1008400050EA010404BF10BC704749B1CCF1200448
:1008500021FA04F411FA0CF118BF012121430843D5
:10086000A3EB0C01CB1D4FEA00614FEA102042BF01
:10087000002010BC704700EBC35010440029A4BFF7
:1008800010BC7047401C490008BF20F0010010BC9C
:10089000704710B5141E73F1000408DA401C41F1D2
:1008A000000192185B411A4301D120F0010010BDF4
:1008B0002DE9F04D92469B4611B1B1FA81F202E06A
:1008C000B0FA80F220329046FFF759FD04460F46F9
:1008D00040EA0A0041EA0B0153465A46084313D046
:1008E000114653EA010019D0C8F140025046FFF703
:1008F00055FD05460E46504659464246FFF73FFD18
:10090000084305D0012004E020463946BDE8F08DBB
:100910000020054346EAE0762C4337430A986305F6
:10092000E40AA0EB08000022FD0A44EA47540A301A
:1009300002D500200146E9E7010510196941DDE90A
:10094000084500196941BDE8F04DA2E72DE9F04DD9
:1009500000231A461B1A8A4103DB00200146BDE82A
:10096000F08DC1F30A52C1F3130141F480154FF029
:10097000000BD10702D100186D41521E002704461A
:1009800040F2FF11384601EB620A3E4680460246BD
:1009900000204FF48011FFF701FDC2197141BB180F
:1009A00046EB0100B4EB030C75EB000C04D3E41A26
:1009B00065EB000517460E46241908F101006D414C
:1009C00080463428E3DDF91946EB0600091BA841EF
:1009D00003D24FF0FF32134601E0002213461BEB17
:1009E000070046EB0A51BDE8F04DFFF752BF00008B
:1009F000064C074D06E0E06840F0010394E807006C
:100A000098471034AC42F6D3FFF7FEFB88B40000E1
:100A1000A8B4000070B58C1810F8015B15F007033E
:100A200001D110F8013B2A1106D110F8012B03E087
:100A300010F8016B01F8016B5B1EF9D12B0705D48F
:100A40000023521E0DD401F8013BFAE710F8013BD8
:100A5000CB1A921C03E013F8015B01F8015B521EF4
:100A6000F9D5A142D8D3002070BD00002DE9F84F80
:100A70000026002000904FF480770125002410E02C
:100A8000384605F07DFB40B100BF2548006828408E
:100A900018B1384605F066FB2E436D00381D87B24D
:100AA000641C082CECD34FF4BE7005F069FB50B108
:100AB0004FF4BE7005F056FB46F000466A46012131
:100AC000002005F0F1FAF0B210B3012500241DE07A
:100AD00005EA0600C0B100BF124850F82400C0F378
:100AE0000420814600BF0F4850F82400C0F30140A5
:100AF0008246204603F0C4F88046B8F1000F02D0C9
:100B000051464846C04700BF6D00641C082CDFD327
:100B100006F0004010B1684606F072F9BDE8F88FA3
:100B2000046300401065004010B51048104908608B
:100B300010484860084601F0A7FF0D480E490860BC
:100B40000120087100204871FF208871C8710020C1
:100B500088600873086148618861C861087901F09C
:100B600013FC064908700846007810BD05280000EF
:100B7000AC050020CD1C00005C05002026000020F4
:100B800070B504460D462A462146044800F0A6F8F2
:100B9000034908700846007870BD00005C0500201D
:100BA0002600002010B5044607480079012808D126
:100BB0002146054800F034F80449087008460078DA
:100BC00010BD0820FCE700005C0500202600002086
:100BD00070B504460D4608480079012809D12A4617
:100BE0002146054803F05CF904490870084600787E
:100BF00070BD0820FCE700005C05002026000020F6
:100C000010B504462146044800F039F8034908703D
:100C10000846007810BD00005C050020260000207A
:100C2000F8B506460D4600240021304601F08EF945
:100C300004460CB12046F8BD01236A460321304624
:100C400000F0D0F804460CB12046F4E735B19DF829
:100C5000000020F080008030009004E09DF800004B
:100C600020F08000009001236A460321304600F006
:100C7000CDF804460CB12046DDE72046DBE7F8B5A9
:100C800006460D4600240021304601F05FF9044677
:100C90000CB12046F8BD01236A460321304600F01E
:100CA000A1F804460CB12046F4E735B19DF80000E8
:100CB00020F040004030009004E09DF8000020F05B
:100CC0004000009001236A460321304600F09EF860
:100CD00004460CB12046DDE72046DBE7F8B50746C1
:100CE0000E461546002406F0030008B90720F8BD9B
:100CF00006F0010078B30221384601F027F90443D9
:100D000001236A461421384600F06CF8044335B1DB
:100D10009DF8000020F00100401C009004E09DF8C8
:100D2000000020F00100009001236A46142138469B
:100D300000F06CF8044301236A461421384600F0A1
:100D400051F8044345B19DF8000000F0010050B98E
:100D500044F0010407E007E09DF8000000F0010006
:100D600008B144F0010400BF06F0020078B302218C
:100D7000384601F0EBF8044301236A461946384629
:100D800000F030F8044335B19DF8000020F0010078
:100D9000401C009004E09DF8000020F0010000904D
:100DA00001236A461946384600F030F8044301230F
:100DB0006A461946384600F015F8044345B19DF8D7
:100DC000000000F0010050B944F0010407E007E022
:100DD0009DF8000000F0010008B144F0010400BFDC
:100DE000204684E72DE9F04104460D4616461F468D
:100DF0002068406810B90220BDE8F08120683A46BA
:100E00003146D0E901C32846E047F5E72DE9F04136
:100E100004460D4616461F462068006810B9022099
:100E2000BDE8F08120683A463146D0F800C08368BA
:100E30002846E047F4E7000010B50446902343F24B
:100E4000D2720249204603F05DF910BD9878000087
:100E50007CB506460D4600240021304601F076F8A8
:100E600004460CB120467CBD012301AA7021304606
:100E7000FFF7B8FF04460CB12046F4E79DF80400E4
:100E800000F01F00019001236A4671213046FFF7F0
:100E9000A9FF04460CB12046E5E79DF800009DF847
:100EA000041040EA012028802046DCE72DE9F04FBD
:100EB00087B004460D4616461F46DDE912ABDDE954
:100EC0001089DDE9141033462A468DE8800FCDE9FC
:100ED00005102146044800F05FF8044908700846F0
:100EE000007807B0BDE8F08F5C05002026000020E8
:100EF00010B504462146044800F09EF903490870E5
:100F00000846007810BD00005C0500202600002087
:100F100010B504462146044800F0EDF90349087075
:100F20000846007810BD00005C0500202600002067
:100F300010B5044800F006FA034908700846007826
:100F400010BD00005C0500202600002038B50446D6
:100F50000D46002000906B462A462146034800F0CB
:100F600018FA034908709DF8000038BD5C050020A0
:100F70002600002037B504460D4602AB2A4621461E
:100F8000034800F016FA03490870084600783EBD91
:100F90005C050020260000202DE9FF4F85B0894622
:100FA00092469B460024B9F1000F09D0B9F1010F18
:100FB0000CD0B9F1020F0FD0B9F1030F18D111E025
:100FC0000325042605274FF0060815E00725082607
:100FD00009274FF00A080FE00B250C260D274FF0CC
:100FE0000E0809E00F25102611274FF0120803E024
:100FF000032009B0BDE8F08F00BF0321059800F081
:10100000A5FF04460CB12046F3E79DF810006AF3F3
:1010100006000490139830B19DF8100020F0800075
:101020008030049004E09DF8100020F080000490CF
:10103000012304AA29460598FFF7E8FE04460CB1EF
:101040002046D6E7139860B918980190012301AAA9
:1010500041460598FFF7DAFE04460CB12046C8E782
:1010600000BFCDF80CB0012303AA31460598FFF765
:10107000CDFE04460CB12046BBE79DF8081012983F
:1010800060F3030102919DF80810149860F3C711F2
:1010900002919DF80810159860F3451102919DF892
:1010A0000810169860F3041102919DF80810179823
:1010B00060F386110291012302AA39460598FFF7D1
:1010C000A5FE04460CB1204693E7204691E72DE9A2
:1010D000FF4F83B09846DDF844900024B9F1000F2B
:1010E00001D0802000E000209DF8101008430490FB
:1010F0000321039800F02AFF0446012304AA1321C8
:101100000398FFF783FE04461CB1204607B0BDE8F4
:10111000F08F0321039800F019FF0446012305AA6C
:1011200014210398FFF772FE04460CB12046EDE748
:101130009DF8080020F08000803002909DF80800A3
:1011400020F0400002909DF8080020F01F0002905F
:101150001298C0439DF8081060F3451102910026D3
:10116000002560E0B9F1000F0FD10321039800F0D2
:10117000EDFE044608EB0502012316210398FFF754
:1011800045FE04460CB12046C0E70321039800F059
:10119000DDFE0446012302AA15210398FFF736FE5F
:1011A00004460CB12046B1E74FF47A7A0027BB46DB
:1011B00017E00021039800F0C9FE0446012301AAAC
:1011C00017210398FFF70EFE04469DF80400C0F3B4
:1011D000801B574501D3012000E0002040EA0B0BA3
:1011E0007F1CBBF1000FE4D09DF80400C0F3001693
:1011F000574501D3012000E00020064306B115E069
:10120000B9F1000F0CD00321039800F09FFE0446B3
:1012100008EB0502012317210398FFF7E3FD0446BD
:10122000681C85B200BF109885429BDB00BF0EB1E1
:1012300001206BE7204669E77CB506460D46002491
:101240000021304600F057F804460CB120467CBD22
:101250000321304600F07AFE04460CB12046F6E742
:10126000012301AA19463046FFF7BCFD04460CB124
:101270002046ECE79DF8040020F00F00C01D01900F
:101280009DF8040020F0100010300190012301AA05
:1012900019463046FFF7BAFD04460CB12046D6E7A2
:1012A0000021304600F052FE04460CB12046CEE745
:1012B00001236A4603213046FFF794FD04460CB132
:1012C0002046C4E735B19DF8000020F02000203012
:1012D000009004E09DF8000020F020000090012321
:1012E0006A4603213046FFF791FD04460CB12046C3
:1012F000ADE72046ABE7F8B506460D4600240021D1
:10130000304600F023FE04460CB12046F8BD012310
:101310006A460F213046FFF765FD04460CB12046B2
:10132000F4E79DF8000065F34100009001236A4650
:101330000F213046FFF76AFD04460CB12046E5E771
:101340002046E3E738B5054600240021284600F092
:10135000FDFD04460CB1204638BD01236A46032139
:101360002846FFF73FFD04460CB12046F4E79DF800
:10137000000020F00200801C009001236A46032137
:101380002846FFF743FD04460CB12046E4E720461B
:10139000E2E7FEB504460D4616461F4601200090C2
:1013A00001903B463246294602902046FFF78FFEC9
:1013B000FEBDFEB504460D4616461F46012000211F
:1013C000CDE900013B463246294602902046FFF710
:1013D0007EFEFEBD30B59BB0FE480079012802D0EC
:1013E00008201BB030BD0025002400200121CDE9DC
:1013F0000201CDE9041000910A23032201910C217E
:10140000FFF754FD0446AC4200DD254601200021D3
:1014100002910391CDE9041003463122CDE9001079
:101420000C21FFF743FD0446AC4200DD25460320B6
:1014300000F0E2FC0446AC4200DD254604201A9090
:1014400001221AA9002001F09FF90446AC4200DDF8
:101450002546012000F0E0FC0446AC4200DD2546B4
:10146000002000F0C9FC0446AC4200DD25464020C7
:101470001990012219A9072001F086F90446AC420F
:1014800000DD25460121102000F03CFD0446AC4261
:1014900000DD25460020FFF7B3FB0446AC4200DD2B
:1014A00025460020FFF77EFB0446AC4200DD2546C2
:1014B0009DF8600020F00300401C18909DF860002B
:1014C00020F00C000C3018900320189900F0F2FC6A
:1014D0000446AC4200DD254601210220FFF750FB07
:1014E0000446AC4200DD2546002000F085FC0446A1
:1014F000AC4200DD254600201790012217A9662086
:1015000001F042F90446AC4200DD2546012217A94C
:10151000672001F039F90446AC4200DD2546002081
:1015200000F09AF90446AC4200DD254600F0EAFBE3
:101530000446AC4200DD254604208DF85A00ADF883
:1015400058000320169900F0F1FC0446AC4200DD7F
:1015500025464FF4805000F097FC0446AC4200DD75
:10156000254600F005FB0446AC4200DD25464FF45D
:10157000805000F089FC0446AC4200DD2546002086
:1015800000F03AFC0446AC4200DD254648201590A8
:10159000012215A9752001F0F7F80446AC4200DDE0
:1015A0002546002000F028FC0446AC4200DD25461C
:1015B000E4201490012214A9262001F0E5F8044645
:1015C000AC4200DD254684A00068139013AA0421D4
:1015D0004FF4F07001F0ECF80446AC4200DD254613
:1015E0007EA00068129012AA042140F2F44001F09B
:1015F000DFF80446AC4200DD25460020119078A0BB
:101600000068109077A000680F9010AA04214FF492
:10161000B87001F0CDF80446AC4200DD254611AAB1
:1016200004214FF4BA7001F0C3F80446AC4200DD67
:10163000254611AA04214FF4BC7001F0B9F8044604
:10164000AC4200DD254611AA04214FF4BE7001F022
:10165000AFF80446AC4200DD25460FAA04214FF442
:10166000C07001F0A5F80446AC4200DD254611AA81
:1016700004214FF4C27001F09BF80446AC4200DD37
:10168000254611AA04214FF4C47001F091F80446D4
:10169000AC4200DD254611AA04214FF4C67001F0CA
:1016A00087F80446AC4200DD25460FAA04214FF41A
:1016B000C87001F07DF80446AC4200DD25460020EC
:1016C0000E9049A000680D900DAA04214FF45060BF
:1016D00001F06EF80446AC4200DD25460EAA042156
:1016E00040F6045001F064F80446AC4200DD2546A3
:1016F0000EAA042140F6085001F05AF80446AC4204
:1017000000DD25460EAA042140F60C5001F050F8E9
:101710000446AC4200DD25460DAA04214FF4516079
:1017200001F046F80446AC4200DD25460EAA04212D
:1017300040F6145001F03CF80446AC4200DD25466A
:101740000EAA042140F6185001F032F80446AC42CB
:1017500000DD25460EAA042140F61C5001F028F8B1
:101760000446AC4200DD25460DAA04214FF4526028
:1017700001F01EF80446AC4200DD2546032104209A
:1017800000F0A8FB0446AC4200DD254617A0006827
:101790000C900CAA042140F28C4001F009F8044698
:1017A000AC4200DD254612A000680B900BAA042174
:1017B0004FF4867000F0FCFF0446AC4200DD254685
:1017C0000CA000680A900AAA04214FF4B66000F049
:1017D000EFFF11E05C0500200400000000040000A1
:1017E00009999999F66666674000000010000000AC
:1017F00000E8BA2E3D27D27D0446AC4200DD2546E6
:1018000013A00068099009AA04214FF4B86000F001
:10181000CFFF0446AC4200DD25460020089008AA10
:10182000022140F2E45000F0C3FF0446AC4200DD68
:10183000254608A00068079007AA022140F20E7012
:1018400000F0B6FF0446AC4200DD25462846C8E558
:1018500002D82D830045000038B504466A460021B1
:10186000164800F02FF8164908700846007810B1A5
:101870000846007838BD9DF8000064F345108DF8E7
:1018800000006A4669460D4800F01CF80C490870D3
:101890000846007810B108460078EBE79DF8000094
:1018A000C0F34010A04205D0012005490870084649
:1018B0000078DFE702480078DCE700005C050020E4
:1018C000260000202DE9FF4107460D46144600265C
:1018D0000021384600F03AFB0646002D7DD02878DE
:1018E0009DF80C1060F300010391287841089DF8E1
:1018F0000C0061F341000390287881089DF80C00EA
:1019000061F3820003902878C1089DF80C0061F310
:10191000C30003909DF80C0020F07000039028781D
:1019200001099DF80C0061F3C71003902878410964
:101930009DF8080061F3000002909DF8080020F077
:10194000FE000290287881099DF8040061F30410DC
:1019500001902878C1099DF8040061F3C30001904B
:1019600068789DF8041060F382010191687841085D
:101970009DF8040061F341000190687881089DF8AA
:10198000040061F3000001909DF8040020F0E000E5
:1019900001906878C1089DF8000061F30410009080
:1019A000687801099DF8000061F3C3000090687831
:1019B00041099DF8000061F3820000906878810978
:1019C0009DF8000061F3410000906878C1099DF81E
:1019D000000061F30000009000E02EE09DF80000A0
:1019E00020F0E0000090012303AA10213846FFF701
:1019F0000DFA06461EB1304604B0BDE8F081012361
:101A000002AA11213846FFF701FA06460EB1304608
:101A1000F2E7012301AA12213846FFF7F7F906463B
:101A20000EB13046E8E701236A4613213846FFF736
:101A3000EDF906460EB13046DEE7002C7DD00123DD
:101A400003AA10213846FFF7CDF906460EB13046FD
:101A5000D2E7012302AA11213846FFF7C3F906464F
:101A60000EB13046C8E7012301AA12213846FFF71C
:101A7000B9F906460EB13046BEE701236A46132186
:101A80003846FFF7AFF906460EB13046B4E79DF889
:101A90000C00217860F3000121709DF80C004108D2
:101AA000207861F3410020709DF80C0081082078B7
:101AB00061F3820020709DF80C00C108207861F36A
:101AC000C30020709DF80C00C109207861F3041058
:101AD00020709DF80800217860F3451121709DF871
:101AE00004000109207861F3861020709DF804003D
:101AF000C108207861F3C71020709DF804008108A8
:101B0000607861F3000060709DF80400410860781F
:101B100061F3410060709DF80400617860F3820118
:101B200061709DF800000109607861F3C300607086
:101B30009DF80000C108607800E016E061F3041031
:101B400060709DF800008108607861F34510607056
:101B50009DF800004108607861F3861060709DF880
:101B60000000617860F3C7116170304644E70000FF
:101B700010B507480079012807D10548FFF75CF93F
:101B8000044908700846007810BD0820FCE70000F2
:101B90005C0500202600002010B5044621460448BC
:101BA00000F00AF8034908700846007810BD0000EC
:101BB0005C05002026000020F8B506460D460024EE
:101BC0000021304600F0C2F901236A460621304662
:101BD000FFF708F904460CB12046F8BD35B19DF871
:101BE000000020F020002030009004E09DF800006C
:101BF00020F02000009001236A4606213046FFF7BE
:101C000005F904460CB12046E7E72046E5E7000069
:101C100070B50024002000F035F806460D48047821
:101C20000CB1204670BD012000F02CF80546094893
:101C300004780CB12046F5E7482E06D1092D04D1D1
:101C40000024044804700078ECE704240148047080
:101C50000078E7E72600002010B504460748007921
:101C6000012808D12146054802F0D0FA044908703D
:101C70000846007810BD0820FCE700005C05002045
:101C80002600002070B5044621460C20FFF75EF9BF
:101C90000546284670BD2DE9F04107460D4616461B
:101CA00000240021384600F051F9044614B12046C2
:101CB000BDE8F08133462A4672213846FFF792F894
:101CC00004460CB12046F3E72046F1E72DE9F04148
:101CD00004460D4616461F4632462946204605F064
:101CE000F9F90020BDE8F08110B5044800F026F8AD
:101CF000034908700846007810BD00005C0500200C
:101D00002600002010B5044800F03FF80349087091
:101D10000846007810BD00005C0500202600002069
:101D200010B50124224632210C20FFF723F9024985
:101D300008700846007810BD2600002038B505461A
:101D400000240021284600F001F904460CB1204689
:101D500038BD01236A4603212846FFF743F80446AD
:101D60000CB12046F4E79DF8000020F00800083090
:101D7000009001236A4603212846FFF747F80446EE
:101D80000CB12046E4E72046E2E738B505460024DA
:101D90000021284600F0DAF804460CB1204638BD90
:101DA00001236A4668212846FFF71CF804460CB157
:101DB0002046F4E79DF8000020F01F001F3000903F
:101DC00001236A4668212846FFF720F804460CB133
:101DD0002046E4E79DF8000020F01F001E30009030
:101DE00001236A4668212846FFF710F804460CB123
:101DF0002046D4E72046D2E710B5044621460448E1
:101E000000F0A4F8034908700846007810BD0000EF
:101E10005C0500202600002010B504462146044839
:101E200000F0B3F8034908700846007810BD0000C0
:101E30005C0500202600002013B504462146044816
:101E4000019A00F0C5F803490870084600781CBDE7
:101E50005C0500202600002070B504460D460848A9
:101E60000079012809D1AAB22146054802F032FEC4
:101E7000044908700846007870BD0820FCE700009F
:101E80005C0500202600002010B5044607480079B4
:101E9000012808D12146054800F005F904490870D9
:101EA0000846007810BD0820FCE700005C05002013
:101EB0002600002013B5044621460448019A00F08C
:101EC00011F903490870084600781CBD5C05002024
:101ED0002600002070B504460D4608480079012808
:101EE00009D12A462146054802F0EAFE0449087055
:101EF0000846007870BD0820FCE700005C05002063
:101F00002600002070B504460D462A4621460548A5
:101F100000F058F904490870012003F0B9FE0248A6
:101F2000007870BD5C0500202600002013B5044633
:101F300021460448019A00F0ADF9034908700846AB
:101F400000781CBD5C0500202600002013B5044667
:101F50009DF80400032801DD03201CBDA0799DF835
:101F60000410884201D10020F7E79DF80400A07119
:101F70009DF80400302101EA00100190012301AA1C
:101F80007F212046FEF742FFE7E7F8B506460D46FB
:101F9000002400213046FFF7D9FF01236A460621BD
:101FA0003046FEF71FFF04460CB12046F8BD9DF8F1
:101FB000000065F30200009001236A4606213046C6
:101FC000FEF724FF04460CB12046EFE72046EDE77C
:101FD00077B581B006460D46002405F0030010B920
:101FE000072004B070BD05F0010058B3022130464F
:101FF000FFF7ACFF044301236A4614213046FEF785
:10200000F1FE04439DF80C109DF8000061F3C5003B
:10201000009001236A4614213046FEF7F7FE044380
:1020200001236A4614213046FEF7DCFE04439DF886
:102030000000C0F3C2009DF80C10884201D044F0AB
:10204000010400BF05F0020058B302213046FFF73B
:102050007DFF044301236A4619463046FEF7C2FE5F
:1020600004439DF80D109DF8000061F3C500009039
:1020700001236A4619463046FEF7C8FE0443012391
:102080006A4619463046FEF7ADFE04439DF800004F
:10209000C0F3C2009DF80D10884201D044F0010445
:1020A00000BF20469DE7F8B505460C460026287976
:1020B00008B90820F8BD20128DF80000E0B28DF8B4
:1020C000010002212846FFF741FF06460EB13046C7
:1020D000F0E702236A4650212846FEF797FE06469F
:1020E0003046E7E777B581B006460D46002405F097
:1020F000030010B9072004B070BD05F0010068B3FB
:1021000002213046FFF722FF044301236A461421CF
:102110003046FEF767FE04439DF80C009DF8001062
:1021200060F34201009101236A4614213046FEF714
:102130006DFE044301236A4614213046FEF752FE29
:1021400004439DF80000C0F341009DF80C1001F01D
:102150000301884201D044F0010400BF05F00200F1
:1021600070B302213046FFF7F1FE044301236A46B3
:1021700019463046FEF736FE04439DF80C008108F0
:102180009DF8000061F34200009001236A46194661
:102190003046FEF73BFE044301236A4619463046AB
:1021A000FEF720FE04439DF80000C0F341009DF8B7
:1021B0000C10C1F38101884201D044F0010400BF3A
:1021C000204698E7F8B507460C461546002604F069
:1021D000130008B90720F8BD00213846FFF7B6FE06
:1021E00006460EB13046F6E701236A460521384619
:1021F000FEF7F8FD06460EB13046ECE704F00100AC
:1022000020B19DF8000065F34510009004F0020035
:1022100020B19DF8000065F30410009004F0100058
:1022200020B19DF8000065F38610009001236A46F6
:1022300005213846FEF7EAFD06460EB13046CAE7EC
:1022400001236A4605213846FEF7CCFD06460EB14D
:102250003046C0E704F0010030B19DF80000C0F343
:102260004010A84200D0012604F0020030B19DF8D1
:102270000000C0F30010A84200D0012604F01000B6
:1022800030B19DF80000C0F38010A84200D00126B4
:102290003046A0E777B583B006460D46002405F02A
:1022A000030010B9072006B070BD05F00100D8B1D9
:1022B00002213046FFF74AFE0443BDF81400001225
:1022C0000290BDF81400C0B20190012302AA1021AF
:1022D0003046FEF79BFD0443012301AA112130463D
:1022E000FEF794FD044300BF05F0020078B102211F
:1022F0003046FFF72BFE04439DF8160002900123A1
:1023000002AA00213046FEF781FD044300BF2046AB
:10231000C9E7F8B506460D46002400213046FFF710
:1023200015FE01236A4606213046FEF75BFD044692
:102330000CB12046F8BD35B19DF8000020F04000FA
:102340004030009004E09DF8000020F04000009034
:1023500001236A4606213046FEF758FD04460CB1BB
:102360002046E7E72046E5E710B504462146044845
:10237000FFF7CFFF034908700846007810BD000042
:102380005C050020260000207CB50546002400F0F6
:10239000C9F9044634B142A000F062FD4C48047013
:1023A00000787CBD322003F073FC0020FFF7DCFFD7
:1023B000044634B147A000F053FD4548047000784E
:1023C000EFE70020FFF7E8FB044634B14CA000F033
:1023D00047FD3F4804700078E3E7284600F04AF9DB
:1023E000044634B152A000F03BFD39480470007837
:1023F000D7E715B136480078D3E700210320FFF76F
:1024000081FD044634B159A000F02AFD3048047023
:102410000078C6E79DF8040020F0030001909DF8C5
:10242000040020F00C00019003200199FFF742FD09
:10243000044634B15AA000F013FD2548047000781A
:10244000AFE707208DF800008DF801000320009908
:10245000FFF7F2FC044634B15EA000F001FD1C4819
:10246000047000789DE700210120FEF789FB0446F7
:1024700034B164A000F0F4FC15480470007890E7D3
:1024800000210220FEF77CFB044634B16BA000F073
:10249000E7FC0F480470007883E70D48007880E778
:1024A00049434D5F32303934385F737461727475EB
:1024B0007044656661756C743A2073775265736514
:1024C000742072657475726E65643A2000000000B5
:1024D0002600002049434D5F32303934385F737431
:1024E000617274757044656661756C743A20736CC2
:1024F0006565702072657475726E65643A200000BF
:1025000049434D5F32303934385F7374617274758A
:102510007044656661756C743A206C6F77506F77A4
:1025200065722072657475726E65643A20000000F1
:1025300049434D5F32303934385F7374617274755A
:102540007044656661756C743A2073746172747559
:10255000704D61676E65746F6D657465722072652C
:102560007475726E65643A200000000049434D5F47
:1025700032303934385F73746172747570446566D3
:1025800061756C743A2073657453616D706C654D40
:102590006F64652072657475726E65643A20000020
:1025A00049434D5F32303934385F737461727475EA
:1025B0007044656661756C743A2073657446756C19
:1025C0006C5363616C652072657475726E65643AF4
:1025D0002000000049434D5F32303934385F737456
:1025E000617274757044656661756C743A207365C8
:1025F00074444C50466366672072657475726E65EC
:10260000643A200049434D5F32303934385F737487
:10261000617274757044656661756C743A20656E9C
:1026200061626C65444C50462028416363292072E6
:10263000657475726E65643A2000000049434D5F11
:1026400032303934385F7374617274757044656602
:1026500061756C743A20656E61626C65444C5046DD
:102660002028477972292072657475726E65643A04
:102670002000000070B588B0064600240020FEF758
:1026800047FC0120FEF734FCFFF74AFB00250BE076
:10269000681CC5B2FFF7BCFA044604B906E0FEF7B1
:1026A00047FC0A2003F0F4FA0A2DF1DB00BF0A2DE3
:1026B00006D104201A4908700846007808B070BD99
:1026C00016B117480078F9E79DF81C0020F01F00AC
:1026D000083007909DF81C0020F0E000079007A943
:1026E000312000F07FF804461CB10D4804700078DA
:1026F000E4E70020029003900490059001200090F0
:10270000092310220C2101900020FEF7CFFB044684
:102710001CB1034804700078D0E701480078CDE789
:102720002600002010B5044800F00AF8034908709C
:102730000846007810BD00005C050020260000203F
:1027400038B50546002400212846FFF7FFFB01238A
:102750006A4606212846FEF745FB04460CB1204692
:1027600038BD9DF8000020F08000803000900123EB
:102770006A4606212846FEF749FB04460CB120466E
:10278000EEE72046ECE7000070B504460D4616461D
:1027900033462A4621460448FEF738FB03490870B1
:1027A0000846007870BD00005C050020260000206F
:1027B00070B504460D4616460848007901280AD12E
:1027C00033462A462146054802F036FB0449087084
:1027D0000846007870BD0820FCE700005C0500207A
:1027E0002600002070B504460D462A7821460C20AC
:1027F000FEF7C0FB024908700846007870BD000073
:10280000260000202DE9F04104460D4616461F46DD
:1028100032462946204604F059FF0020BDE8F081E9
:1028200010B54FF4807003F01AFA80B14FF4807045
:1028300003F01EFA012003F025FA0D48407930B963
:1028400001200B49487108460168002088474FF471
:10285000827003F004FA50B14FF4827003F008FA6A
:10286000022003F00FFA024801680120884710BDDA
:102870003C00002010B51948006838B118480068BD
:1028800000F0010010B100201449086013480C301A
:10289000006870B11248006800F0080048B10020DC
:1028A0000E490C3108600F48006810B10D480068EF
:1028B00080470A481030006870B10948006800F08D
:1028C000100048B100200549103108600648006832
:1028D00010B105480068804710BD0000001100409D
:1028E00004130040B8000020B400002010B5034AD3
:1028F0001068034A1168884710BD0000700000206E
:102900006C0000202DE9F047074688461646C2466F
:1029100007EB47011B4800EBC109D9F8140020B1AF
:10292000012811D0022826D11EE0484600F02AFADC
:102930000546B54201D2002405E0344632465146F0
:10294000484600F066FA18E0484600F01BFA0546D3
:10295000B54201D2284600E03046044622465146A0
:10296000484600F056FA08E032465146484600F024
:1029700017FA044601E0002400BF00BF2046BDE86E
:10298000F08700009C0C002010B50249024802F0BC
:10299000F3FA10BD64060020003000402DE9FF412D
:1029A0000D2001210A4600231C461D4600BF4FF0A2
:1029B000A0473E4641EA420747EA830747EA042721
:1029C00047EA054C06F5E06747F820C000BF00BFA6
:1029D00003F09AFB104B0FCB8DE80F00FF208DF812
:1029E00003000E208DF802000B208DF801000C2052
:1029F0008DF8000000BF0023084A6946084803F02C
:102A00005FF9044624B100BF204601F003F800BF7F
:102A100000BFBDE8FF810000B87700007D720000B4
:102A2000A07700003EB516480068019002A803F0A8
:102A3000C7F904461CBB1348006800B3029800F0B5
:102A4000010030B100208DF8000068460D4909688A
:102A50008847029800F0020030B101208DF8000094
:102A60006846084909688847029800F0040030B1B8
:102A700002208DF8000068460249096888473EBD7B
:102A8000A8000020800000208060704701480249B3
:102A9000086070470090D0032001002010B502F0BC
:102AA000BFFE28B192480088C0F304209149086015
:102AB00002F012FF10B190489049486702F04CFFB5
:102AC00030B18B48E0380068C0F342308C49086070
:102AD00002F070FF28B18B48006820F080708949AF
:102AE000086002F087FF48B10020874908604FF076
:102AF0008041C1F810018249091F086002F0A8FF57
:102B000018B103207E496431086002F0C1FF68B14A
:102B100005207E49086001207C497831086000204A
:102B20007A49083108603F20091F086002F0D0FF91
:102B3000002855D06E48E0300068754908606C4840
:102B4000E4300068091D08606948E8300068091D24
:102B500008606748EC300068091D08606448F03080
:102B60000068091D08606248F4300068091D0860AB
:102B70005F48F83000686649203108605C48FC30E6
:102B80000068091D086063480068091D0860614805
:102B9000001D0068091D08605E4808300068091DB6
:102BA00008605C480C300068091D08605948103006
:102BB0000068574940310860564814300068091DC4
:102BC0000860544818300068091D086051481C30DE
:102BD0000068091D08604F4820300068091D086022
:102BE00002F0F0FD30B14248CC38006800F04F00F0
:102BF0004949086002F042FE40B14848006800F0D0
:102C0000010018B16FF001004449086002F084FE31
:102C100028B14348006840F4806041490860394861
:102C20007438006840F4700036497439086000BF99
:102C300000BF00BFBFF34F8F00BF00BF00BF00BF8A
:102C400000BF00BFBFF36F8F00BF00BF00BF35489C
:102C5000006800F0004028B93248001D006800F00C
:102C60000040E8B301203049086000BF2F480068E9
:102C70000028FBD015202B49086000BF2B480068B6
:102C80000028FBD015212748001D016000BF274800
:102C900000680028FBD000202349086000BF2348BB
:102CA00000680028FBD000BF00BF00BF00BF00BF0E
:102CB000BFF34F8F00BF00BF00BF1248F03800685D
:102CC00000F4E0601A490843001D0E49F03908601D
:102CD00000BF00BF00BFBFF34F8F00BF00BF00E0C9
:102CE00003E000BF00BF00BFFDE7FFF7CFFE10BD50
:102CF00024030010403501400DF0ADBA00C007407C
:102D00003C050040FCED00E00C0100401056004086
:102D100020C5004024040010E40E004000040040E0
:102D20003C1700400012001004E5014000E401409F
:102D30000000FA0510B504220249034802F02EF9FA
:102D400010BD0000A006002000800040064800687A
:102D500048B100200449086004480078032802D1E3
:102D6000012003490861704740A10140790000201B
:102D70000010004010B502490868804710BD0000EF
:102D80003400002010B501460A69CB689A4204D885
:102D90008C68641EE41AA01801E0D41A601E10BDED
:102DA0002DE9F0470446894617464FF0000AE568CA
:102DB00000BFD4F81080A84503D9A8EB0500461E33
:102DC00004E0A5EB0800401CA1680E1AA068401B97
:102DD000B04201D9304601E0A068401B0646BE4221
:102DE00001D2304600E0384606466168481932464E
:102DF0004946FDF7E7FAB244B144BF1B3544A06829
:102E0000A84200D10025E560002FD2D15046BDE890
:102E1000F0872DE9F047044689461546E668A06824
:102E2000871BAF4208D9616888192A464946FDF7D1
:102E3000C9FA7019E06010E0B84661688819424626
:102E40004946FDF7BFFAA5EB070809EB0701424623
:102E50006068FDF7B7FAC4F80C80BDE8F0870000A1
:102E6000014A024900F066BD813D00006400002077
:102E700003B401984100009850EAC12018BF042013
:102E80004A0D18BF40F0010040F2FF72B2EB515FF3
:102E900008BF40F00200012808BF052002B07047BB
:102EA000002817DB00F01F02012191400A4A430964
:102EB00042F8231000BF00BF00BFBFF34F8F00BF19
:102EC00000BF00BF00BF00BF00BFBFF36F8F00BFD8
:102ED00000BF00BF7047000080E100E000280DDB6C
:102EE00000BF00BF00F01F02012191404209920083
:102EF00002F1E022C2F8001100BF00BF70470000DD
:102F000070B5C1482DED020B2DED0E8B82B0119DD9
:102F100025F000449FEDBEDB9FEDBFEB84423EDB1E
:102F2000A4F140511098A1F17F6108430FD0BC4833
:102F3000844202DC28D1109830B39DED100B02B012
:102F4000BDEC0E8B02B0BDE8704000F0A6BC9DED5C
:102F5000100B53EC1D2B51EC100BFDF712FB9DEDEC
:102F6000100B41EC180B53EC1E2B51EC100BFDF722
:102F700008FB53EC182BFDF75DFA41EC100B02B087
:102F8000BDEC0E8B02B070BD012000F0CDFC02B094
:102F9000BDEC0E8B02B0BDE8704000F095BCA148BE
:102FA0009FEDA18B844256DA9DED100BB4F1795F51
:102FB0000ADA51EC100BFFF75BFF042808BF00F0A2
:102FC00093FC9DED100BDAE753EC102B51EC100B3A
:102FD000FDF7D7FA41EC190B95480621B0EE490AE6
:102FE000F0EE690A784400F0DCFB53EC192B51EC4D
:102FF000100BFDF7C6FA41EC1A0B8E48B0EE490AE9
:10300000F0EE690A0421784400F0CBFB53EC192B55
:1030100051EC100BFDF7B5FA53EC182BFDF70AFA3B
:1030200041EC100B51EC1A0B53EC102BFDF71BFB72
:10303000CDE900019DED000B53EC102B9DED100B25
:1030400051EC100BFDF79DFA9DED101B53EC112B6D
:10305000FDF7F0F9D2E09DED100B51EC100B00F0F4
:1030600049FE53EC182BFDF789FA9FED730BCDE960
:10307000000153EC102B9DED000B51EC100BFDF7F4
:1030800080FA41EC190B6E480621B0EE490AF0EEC9
:10309000690A784400F085FB53EC192B51EC100BB6
:1030A000FDF76FFA41EC1B0B6648B0EE490AF0EEF3
:1030B000690A0421784400F074FB53EC192B51EC9D
:1030C000100BFDF75EFA53EC182BFDF7B3F941EC4A
:1030D0001C0B51EC190B04F07FF941EC180B5A480A
:1030E0009FED5BABA04222DC53EC1C2B51EC1B0B85
:1030F000FDF7B9FACDE900019DED000B51EC180B7D
:1031000053EC102BFDF73DFA53EC182BFDF792F919
:1031100053EC1A2BFDF735FA53EC1D2BFDF72BFA68
:1031200053EC1E2BFDF72AFA41EC100B5FE08DEDFE
:10313000008B002000909DED000B51EC180B53EC20
:10314000102BFDF777F99DED000B41EC1E0B53ECB6
:10315000102B51EC100BFDF714FA53EC192BFDF763
:103160000DFA53EC1E2BFDF77EFA41EC190B53ECD4
:103170001C2B51EC1B0BFDF776FA41EC1B0B53ECAF
:103180001A2B51EC190BFDF7FCF953EC1D2BFDF735
:10319000F5F941EC190B53EC1A2B51EC180BFDF718
:1031A000F0F953EC1B2BFDF7ECF953EC192BFDF761
:1031B000E2F99DED000B41EC180B53EC1A2B51EC8E
:1031C000100BFDF7DEF99FED249B53EC192BFDF757
:1031D000D5F941EC100B51EC180B53EC102BFDF70B
:1031E000CAF953EC192BFDF7C9F941EC100B002D6E
:1031F0003FF7C5AE51EC100B81F0004141EC100BD4
:10320000BDE60000000000000000F03F00000000EC
:10321000075C143326A6913C182D4454FB21F93F3A
:103220000000F07F0000E03F000000000000F03FE1
:10323000E8810000F6810000000000000000E03F8F
:103240003A810000488100003333EF3F0000000066
:103250000000000000000040182D4454FB21E93F0D
:1032600070B59B482DED020B2DED068B079D25F0CB
:103270000044A04218DC9748844202DC0AD1069838
:1032800040B19DED060BBDEC068B02B0BDE8704071
:1032900000F003BB002DCCBF9FED8F0B9FED900B7B
:1032A000BDEC068B02B070BD8F48A04215DD8F4883
:1032B000A042D8BF4FF0FF3458DD9DED060B51EC16
:1032C000100BFFF7D5FD042808BF00F00DFB9DEDA6
:1032D000060BBDEC068B02B070BD9DED060B51ECEC
:1032E000100B00F007FDCDE9060181489FED828BB0
:1032F000A0423CDD8248A0421FDD00249FED82AB4E
:103300009DED060B53EC1A2B51EC100BFDF792F8C8
:103310009DED060B41EC190B53EC1A2B51EC100BE5
:10332000FDF72FF953EC182BFDF725F953EC192B6A
:10333000FDF799F9CDE9060149E09DED060B012461
:1033400053EC182B51EC100BFDF774F89DED060BA8
:1033500041EC190B53EC182B51EC100BFDF70BF94A
:1033600053EC192BFDF77FF9CDE906012FE06848F2
:10337000A0421FDD02249FED689B9DED060B53ECE0
:10338000192B51EC100BFDF7FCF853EC182BFDF743
:1033900051F89DED060B41EC180B53EC192B51EC39
:1033A000100BFDF7E8F853EC182BFDF75CF9CDE9AD
:1033B00006010CE09DED060B032453EC102B9FED52
:1033C000580B51EC100BFDF74EF9CDE906019DEDC0
:1033D000060B53EC102B51EC100BFDF7D2F841EC1F
:1033E000180B53EC182BFDF7CCF841EC190B4E4899
:1033F0000621B0EE490AF0EE690A784400F0D1F9EE
:1034000053EC182B51EC100BFDF7BBF841EC180BEB
:103410004648B0EE490AF0EE690A0521784400F00A
:10342000C0F953EC192B51EC100BFDF7AAF841EC45
:10343000100B51EC180B53EC102B002C0EDAFCF790
:10344000F9FF9DED061B53EC112BFDF79AF89DED4E
:10345000061B53EC112BFDF791F835E0FCF7EAFF62
:103460009DED061B53EC112BFDF78BF841EC100B77
:103470002F48784400EBC40090ED001B51EC100B7A
:1034800053EC112BFDF777F89DED061B53EC112B38
:10349000FDF771F841EC100B2648784400EBC400AE
:1034A00090ED001B51EC100B53EC112BFDF766F85F
:1034B00041EC100B002DA2BFBDEC068B02B070BD1D
:1034C00051EC100B81F0004141EC100B01E70000C2
:1034D000000010440000F07F182D4454FB21F93FF8
:1034E000182D4454FB21F9BF0000DC3F0000203EB2
:1034F0000000F33F00000000000000000000F03F6B
:103500000000E63F00000000000000000000004056
:103510000080034000000000000000000000F83FB1
:10352000000000000000F0BF127F0000C87E000015
:10353000527E00000A7E000070B56B4E2DED040B2C
:103540002DED028B82B0DDF81CC0DDE905235C4265
:103550002CF000411C4341EAD474049D22F0004049
:10356000B44205D86C422C4340EAD474B4420BD91F
:103570009DED061B9DED040B02B0BDEC028B04B06B
:10358000BDE8704000F093B9ACF14054A4F17F6401
:103590001C430BD0022404EAAC7444EAD274054301
:1035A0009FED538B9FED542B07D015E09DED040B41
:1035B00051EC100B00F0B2FA42E0002C11BF012CCC
:1035C0009DED040B02B0BDEC028B04BF04B070BDD6
:1035D000022C38D0032C3BD00B439FED491B9FEDB1
:1035E0004A0B0AD0B14218D1B04209D121F0804132
:1035F00020F08040079105900FE0002A15DA10E0D6
:10360000434B7B44002C08BF93ED000B0DD0012CE5
:1036100010D0022C17D0032C1AD0B0421DD1002A92
:1036200003DAB0EE410AF0EE610A02B0BDEC028BA3
:1036300004B070BD93ED000B51EC100B81F0004114
:1036400041EC100BF1E7B0EE480AF0EE680AECE747
:10365000B0EE420AF0EE620AE7E7401A00153C2895
:10366000C8BF8DED000B19DCBCF1000FBEBF10F11F
:103670003C0F9FED290B8DED000B0FDB9DED060B35
:1036800053EC102B9DED040B51EC100BFCF7EBFFF2
:1036900000F030FB00F042FACDE90001002C08BF39
:1036A0009DED000BC1D0012C10D0022C9FED1C0B06
:1036B00053EC102B9DED000B51EC100B0DD0FCF7D3
:1036C0005AFF53EC182BFCF756FFB9E7019880F02E
:1036D000004001909DED000BA7E7FCF74CFF53EC79
:1036E000182BFCF74BFFABE70000F07F0000000059
:1036F000182D4454FB210940182D4454FB2109C0C6
:10370000182D4454FB21F9BF182D4454FB21F93FD7
:103710003A7D0000000000000000000000000000F2
:10372000075C143326A6A13C00B52DED048BB0EE4A
:10373000409AF0EE609A83B051EC190BFDF706F950
:1037400041EC180B18EE100A18EE901A8DED008B54
:10375000002818BF0120084320F00040C0F17F601E
:1037600000F1E040C00F14D019EE101A19EE900AC3
:103770008DED009B002918BF0121084320F0004077
:10378000C0F17F6000F1E040C00F04BF012000F0F5
:10379000CBF8B0EE480A03B0F0EE680ABDEC048B3B
:1037A00000BD70B504462DED028B4D1E00EBC5002B
:1037B000B0EE408AF0EE608A90ED000B35F0060026
:1037C00017D053EC182B51EC100BFCF7DAFE41EC40
:1037D000100B6D1E04EBC50090ED001B51EC100B9F
:1037E00053EC112BFCF726FE41EC100B35F00600D4
:1037F000E7D1022D36D0042D1CD0062D1CBFBDEC08
:10380000028B70BD53EC182B51EC100BFCF7B9FE7A
:1038100094ED0A1B53EC112BFCF70CFE53EC182B08
:10382000FCF7AFFE94ED081B53EC112BFCF702FEE6
:1038300041EC100B53EC182B51EC100BFCF7A1FED4
:1038400094ED061B53EC112BFCF7F4FD53EC182BF5
:10385000FCF797FE94ED040B53EC102BFCF7EAFDFC
:1038600041EC100B53EC182B51EC100BFCF789FEBC
:1038700094ED021B53EC112BFCF7DCFD53EC182BE1
:10388000FCF77FFE94ED001B53EC112BFCF7D2FDEF
:10389000BDEC028B41EC100B70BD10B553EC102B3E
:1038A00051EC100BFCF7C6FD41EC100B10BD10B530
:1038B00053EC112B51EC100BFCF7BCFD41EC100B41
:1038C00010BD0000000000009FED050B10B553EC8B
:1038D000102B51EC100BFCF7C6FE41EC100B10BD89
:1038E00000000000000000009FED050B10B553EC38
:1038F000102B51EC100BFCF744FE41EC100B10BDEB
:10390000000000000000001002E008C8121F08C1FB
:10391000002AFAD170477047002001E001C1121F50
:10392000002AFBD170470000014908607047000081
:103930002C0100202DE9F04116460F4604460025D3
:1039400003E03946B047641C6D1C20780028F8D18C
:103950002846BDE8F081000072B600BF02F0D2FE3A
:1039600000BF00BF02F0C0FC0028FBD100BF00BFB9
:103970001D491E4A891AC908012242EA01401CA1B8
:1039800002F03CFE00BF1D48006800F0010000B1DD
:1039900000BE00BF1449154A891AC908022242EA2A
:1039A000014017A102F02AFE00BF00BF00BF00BF08
:1039B00000BFBFF34F8F00BF00BF00BF0F48E43808
:1039C000006800F4E06012490843001D0B49E43927
:1039D000086000BF00BF00BFBFF34F8F00BF00BF34
:1039E00000BF00BF00BFFDE710B50000B8B4000085
:1039F000466174616C206572726F7200F0ED00E0D8
:103A000053797374656D20726573657400000000EE
:103A10000000FA053EB50446002000900190029097
:103A200002946A46002144F20100FFF795FF3EBD73
:103A300070B504460D46204600F074F928B12946B9
:103A4000204600F063F9002070BD0520FCE770B54A
:103A500004460D46204600F065F9A188884205D845
:103A60002946204600F06CF9002070BD0420FCE7D8
:103A70002DE9F041054629461448FFF7E8FF0646C0
:103A800006BB134C002720781249085C20B1201D8A
:103A900003F0A6F9074608E020780E49085C20B933
:103AA00004F10C0003F02AF9074600BF57B90A4990
:103AB0000648FFF7BDFF28B901220749044802F074
:103AC0005DF906463046BDE8F0810000BC060020E6
:103AD00048000020300000206000002000B50246B1
:103AE00000F006F800BD00B5024600F00BF800BD7E
:103AF00072B603480068401C014908607047000026
:103B00004400002004480068401E0349086008463D
:103B1000006800B962B670474400002010B541EC5F
:103B2000100BFFF79DFB51EC100B10BD2DE9F84F6A
:103B300004460D461646A71C4FF001080020FFF76B
:103B4000CDFF3048406828602E4840682D4989687C
:103B5000411A2D480068401CA0EB010915E0012125
:103B60002A4801F0F1FF01F05BFA824651462748EE
:103B700001F0EAFF2348406822498968411A224837
:103B80000068401CA0EB010900BF4F45E7D8B8F121
:103B9000000F30D00021009176B1009921F003018F
:103BA000491C0091009921F00401091D0091009920
:103BB00064F3891100910DE0009921F00301891C43
:103BC0000091009921F00401091D0091009964F30E
:103BD0009F5100910B4949680B4A12681140094AEC
:103BE0000C3202EB810000990160064949683944B2
:103BF0000C3A516000BF0020FFF775FF4046BDE85A
:103C0000F88F000064080020DC000020800C0020F9
:103C100070B504460D460A2D03D10D212046FFF74D
:103C2000F7FFA168481CA06020684554D4E9011042
:103C3000884202D3204602F0F8F870BD044880683C
:103C400003494968884201D1012070470020FCE700
:103C50006408002070B50446200E03F099FC0506A8
:103C6000200C03F095FC45EA0045200A03F090FC87
:103C700045EA0025204603F08BFC284370BD000078
:103C80000146024850F82100704700000806002055
:103C900001460148405670473806002000200D4973
:103CA000086001208107086000BF0A4800680028FA
:103CB000FBD001200849086000200649091D086062
:103CC00001208107886000BF0248001D00680028AD
:103CD000FAD07047000100401805004010B50021DF
:103CE000034801F047FF044684F3100010BD0000B4
:103CF000800C002082B0CDE9000121F0004001904D
:103D00009DED000B02B051EC100B704770B50446EE
:103D10000D462A460021204600F009F8A068401C04
:103D2000A06070BD01468A68C868801A704710B5E7
:103D300083680B44848823400468E35C137010BDDF
:103D4000C26883881A4003689954C268521CC260D2
:103D5000704710B50446E07FFF2808D0A07F18B157
:103D6000E07F02F0C6F902E0E07F02F0D8F900201F
:103D70006077207204F10800D4E90021904710BD5B
:103D800070B504460D46E0B2FFF772FE204670BDE6
:103D900010B5002821D0114B0022001F196803E044
:103DA000814203D80A4649680029F9D152B1136803
:103DB000841A9C4204D1006818441060104602E046
:103DC000506000E0186039B102680B1A934203D1C9
:103DD0000B681A4402604968416010BD240100204C
:103DE0002DE9FC5F83460E4691461F46DDE90C45F2
:103DF000002E01DA704200E0304682464FF00108A2
:103E000003E09AFBF9FA08F10108CA45F9DA4745D7
:103E100000D9B84634B1002E03DB05F004000428B5
:103E200000D1641E05F0020000B167B105F0010089
:103E300048B944B104E0641E20215846FFF7E8FE6B
:103E40000CB1A045F7D3002E05DA76422D21584655
:103E5000FFF7DEFE07E005F00400042803D12B2164
:103E60005846FFF7D5FE05F0020002280DD105F0F7
:103E7000010050B94FB944B104E0641E30215846E6
:103E8000FFF7C6FE0CB1A045F7D33B464A46314684
:103E90005846CDE9004503F0BDFBBDE8FC9F00009E
:103EA0002DE9F74F82B005464FF000080027BB46CA
:103EB000287918B9082005B0BDE8F08F039803F001
:103EC00061F98146B9F12C0F01DB0720F3E789483E
:103ED00030F819404FF6FF70844201D10720EAE71D
:103EE000B9F1200F0CDA012000FA09F6049818B98C
:103EF0002869B043286111E02869304328610DE04A
:103F0000A9F12000012101FA00F6049818B96869A6
:103F1000B043686102E068693043686100240020B2
:103F200032E0012101FA00F62969314019B17149E5
:103F300031F810100C436969314029B16D4A00F124
:103F4000200132F811100C436B49314011B906F4CD
:103F5000DD6119B14BF0020B47F40077674931403E
:103F600019B940F61801314019B14BF0010B47F473
:103F700080776349314011B906F0840119B14BF0E3
:103F8000080B47F08007401C2028CADB0021284688
:103F9000FEF7BFF98046B8F1000F01D040468AE72E
:103FA00000212846FDF708FE8046B8F1000F01D039
:103FB000404680E74FF0000A04F40040002801DD8D
:103FC0004AF4804A04F04000002803DC04F48040F6
:103FD000002801DD4AF4005A04F0200000280BDC20
:103FE00004F40050002807DC04F48060002803DC9F
:103FF00004F48070002801DD4AF4805A20128DF804
:104000000400E0B28DF805002C8401AB02224021AF
:10401000284600F011FF8046B8F1000F01D040465D
:1040200049E74FEA2A208DF804000AF0FF008DF8D6
:104030000500A5F822A001AB02224221284600F08B
:10404000FBFE8046B8F1000F01D0404633E74FEA4F
:104050002B208DF804000BF0FF008DF80500A5F86B
:1040600024B001AB02228A21284600F0E5FE8046FA
:10407000B8F1000F01D040461DE704F4806000282D
:1040800001DD47F0400704F0100000280BDC04F0CD
:104090000100002807DC04F00200002803DC04F023
:1040A0000400002801DD47F4005704F48070002864
:1040B00001DD47F0080738128DF80400F8B28DF8DA
:1040C0000500EF8401AB02224E21284600F0B4FE29
:1040D0008046B8F1000F01D04046ECE601212846A9
:1040E000FDF76AFD8046B8F1000F01D04046E2E6D8
:1040F0004046E0E63CB100000A8E9EE2188E01E6E2
:104100000C4810832DE9FF4F85B081468A469346BF
:1041100000270020009099F8040018B9082009B081
:10412000BDE8F08F99F8050008B10020F7E70021FD
:104130004846FEF7EEF807460FB13846EFE7002194
:104140004846FDF739FD07460FB13846E7E7D04648
:104150005D46089E1CE0102D01DC2C4600E010247A
:10416000F0B22044B0F5807F03DDF0B22044A0F52A
:104170008074434622463146484600F05DFE0746BD
:104180000FB13846CBE7A044281B85B2301986B260
:10419000002DE0DCD0465D46089E25E0102D01DCB8
:1041A0002C4600E01024F0B22044B0F5807F03DDFF
:1041B000F0B22044A0F5807401AB22463146484657
:1041C00000F034FC074617B10098401C00902246CE
:1041D000414601A8FCF721F908B109209FE7A04456
:1041E000281B85B2301986B2002DD7DC0121484644
:1041F000FDF7E2FC07460FB1384690E7009810B98A
:10420000012089F80500384689E700002DE9F041D2
:1042100086B007460C460025387918B9082006B044
:10422000BDE8F08101A93846FCF712FE05460DB144
:104230002846F4E7BDF80400022801DA0A20EEE778
:10424000002020800026022202A93846FDF723FD27
:1042500005460DB12846E2E7002008E002A9095C06
:104260000822A2EBC002914031438EB2401C0228CA
:10427000F4DB2680BDF80400801E80B2019000208F
:104280006080207800F0080000282EDDBDF80400D2
:10429000022807DA01A93846FCF7DAFD05460DB118
:1042A0002846BCE7BDF80400022801DA0B20B6E777
:1042B0000026022202A93846FDF7EDFC05460DB1A5
:1042C0002846ACE7002008E002A9095C0822A2EB1E
:1042D000C002914031438EB2401C0228F4DB66805C
:1042E000BDF80400801E80B20190208800F40040D8
:1042F00000282BDDBDF80400062807DA01A938469E
:10430000FCF7A6FD05460DB1284688E7BDF8040078
:10431000062801DA0B2082E7062202A93846FDF7BB
:10432000BAFC05460DB1284679E7002007E002A94E
:104330000A5CFE4951F82030211DCA54401C062851
:10434000F5DBBDF80400801F80B20190208800F4E6
:10435000804000282CDDBDF804000C2807DA01A9F4
:104360003846FCF775FD05460DB1284657E7BDF800
:1043700004000C2801DA0B2051E70C2202A9384670
:10438000FDF789FC05460DB1284648E7002008E006
:1043900002A90A5CE64951F8203004F10A01CA5426
:1043A000401C0C28F4DBBDF804000C3880B20190EE
:1043B000208800F4005000282CDDBDF804000628F9
:1043C00007DA01A93846FCF743FD05460DB128463A
:1043D00025E7BDF80400062801DA0B201FE70622B6
:1043E00002A93846FDF757FC05460DB1284616E7E9
:1043F000002008E002A90A5CCC4951F8203004F101
:104400001601CA54401C0628F4DBBDF80400801FC6
:1044100080B20190208800F48050002829DDBDF88A
:104420000400082807DA01A93846FCF711FD054603
:104430000DB12846F3E6BDF80400082801DA0B2088
:10444000EDE6082202A93846FDF725FC05460DB128
:104450002846E4E6002005E002A90A5C04F11C01FC
:104460000A54401C0828F7DBBDF80400083880B265
:104470000190208800F4006000282CDDBDF80400C5
:104480000C2807DA01A93846FCF7E2FC05460DB115
:104490002846C4E6BDF804000C2801DA0B20BEE66D
:1044A0000C2202A93846FDF7F6FB05460DB1284659
:1044B000B5E6002008E002A90A5C9E4951F82030C8
:1044C00004F12401CA54401C0C28F4DBBDF804009C
:1044D0000C3880B20190208800F4806000282CDD28
:1044E000BDF804000E2807DA01A93846FCF7B0FC35
:1044F00005460DB1284692E6BDF804000E2801DA03
:104500000B208CE60E2202A93846FDF7C4FB0546B7
:104510000DB1284683E6002008E002A90A5C86491E
:1045200051F8203004F13001CA54401C0E28F4DB4D
:10453000BDF804000E3880B20190208800F40070AD
:1045400000282CDDBDF80400062807DA01A938464A
:10455000FCF77EFC05460DB1284660E6BDF8040078
:10456000062801DA0B205AE6062202A93846FDF792
:1045700092FB05460DB1284651E6002008E002A94D
:104580000A5C6A4951F8203004F14001CA54401CC9
:104590000628F4DBBDF80400801F80B2019020885B
:1045A00000F4807000282CDDBDF804000E2807DA26
:1045B00001A93846FCF74CFC05460DB128462EE60D
:1045C000BDF804000E2801DA0B2028E60E2202A90D
:1045D0003846FDF760FB05460DB128461FE6002072
:1045E00008E002A90A5C544951F8203004F148015E
:1045F000CA54401C0E28F4DBBDF804000E3880B20B
:104600000190207800F08000002829DDBDF804002A
:10461000062807DA01A93846FCF71AFC05460DB151
:104620002846FCE5BDF80400062801DA0B20F6E573
:10463000062202A93846FDF72EFB05460DB1284695
:10464000EDE5002005E002A90A5C04F158010A54D6
:10465000401C0628F7DBBDF80400801F80B20190E3
:10466000207800F0200000282CDDBDF804000C2884
:1046700007DA01A93846FCF7EBFB05460DB12846E1
:10468000CDE5BDF804000C2801DA0B20C7E50C22AB
:1046900002A93846FDF7FFFA05460DB12846BEE5EA
:1046A000002008E002A90A5C224951F8203004F1F8
:1046B0006C01CA54401C0C28F4DBBDF804000C3813
:1046C00080B20190207800F0100000283ADDBDF89B
:1046D0000400042807DA01A93846FCF7B9FB0546AF
:1046E0000DB128469BE5BDF80400042801DA0B2033
:1046F00095E5042202A93846FDF7CDFA05460DB12D
:1047000028468CE54FF00008002008E002A9095C6B
:104710001822A2EBC002914041EA0808401C04287C
:10472000F4DBC4F87880BDF8040007E0D4B00000E2
:10473000ECB00000A4B000006CB00000001F80B21C
:10474000019000BF608800F4804000282FDDBDF894
:104750000400022807DA01A93846FCF779FB054670
:104760000DB128465BE5BDF80400022801DA0B20F4
:1047700055E50026022202A93846FDF78CFA0546C7
:104780000DB128464BE5002008E002A9095C08228B
:10479000A2EBC002914031438EB2401C0228F4DBF0
:1047A000A4F87C60BDF80400801E80B2019060888F
:1047B00000F4005000282FDDBDF80400022807DABD
:1047C00001A93846FCF744FB05460DB1284626E50D
:1047D000BDF80400022801DA0B2020E500260222A1
:1047E00002A93846FDF757FA05460DB1284616E5E9
:1047F000002008E002A9095C0822A2EBC002914057
:1048000031438EB2401C0228F4DBA4F87E60BDF870
:104810000400801E80B20190608800F4805000285F
:104820002FDDBDF80400022807DA01A93846FCF79D
:104830000FFB05460DB12846F1E4BDF8040002283F
:1048400001DA0B20EBE40026022202A93846FDF72C
:1048500022FA05460DB12846E1E4002008E002A94D
:10486000095C0822A2EBC002914031438EB2401C89
:104870000228F4DBA4F88060BDF80400801E80B23A
:104880000190608800F4806000282FDDBDF80400EE
:10489000022807DA01A93846FCF7DAFA05460DB115
:1048A0002846BCE4BDF80400022801DA0B20B6E477
:1048B0000026022202A93846FDF7EDF905460DB1A2
:1048C0002846ACE4002008E002A9095C0822A2EB1B
:1048D000C002914031438EB2401C0228F4DBA4F8A0
:1048E0008460BDF80400801E80B20190A07800F0C2
:1048F000800000282CDDBDF80400062807DA01A995
:104900003846FCF7A5FA05460DB1284687E4BDF800
:104910000400062801DA0B2081E4062202A93846A9
:10492000FDF7B9F905460DB1284678E4002008E006
:1049300002A90A5C3B4951F8203004F18801CA54AD
:10494000401C0628F4DBBDF80400801F80B20190F3
:10495000A07800F0400000282CDDBDF804000228FB
:1049600007DA01A93846FCF773FA05460DB1284667
:1049700055E4BDF80400022801DA0B204FE40222BE
:1049800002A93846FDF787F905460DB1284646E4E9
:10499000002008E002A90A5C234951F8203004F104
:1049A0009001CA54401C0228F4DBBDF80400801EAC
:1049B00080B20190BDF80400022807DA01A9384648
:1049C000FCF746FA05460DB1284628E4BDF8040078
:1049D000022801DA0B2022E40026022202A938462E
:1049E000FDF759F905460DB1284618E4002008E006
:1049F00002A9095C0822A2EBC002914031438EB2A9
:104A0000401C0228F4DBA4F89260BDF80400801E6C
:104A100080B20190BDF80400002801DD0C2008E4FC
:104A2000284606E41CB1000034B100002DE9FC4723
:104A300080460E461746994600240025B9F1000F1E
:104A400002D10620BDE8FC8700214046FDF77EFA32
:104A500004460CB12046F5E73012019098F80700A3
:104A60009DF8041088420DD09DF8040088F80700D6
:104A7000012301AA7E214046FCF7C8F904460CB187
:104A80002046DFE722E0F0B2009001236A467C2155
:104A90004046FCF7BBF904460CB12046D2E7781B30
:104AA000102802D8A7EB050A01E04FF0100A09EB25
:104AB000050253467D214046FCF794F904460CB1AB
:104AC0002046BFE7554406EB0A0086B2BD42DAD362
:104AD0002046B7E72DE9FC410646884615460024E6
:104AE0000027307910B90820BDE8FC8128128DF824
:104AF0000400E8B28DF80500002000900021304647
:104B0000FDF707FC04460CB12046EDE700213046D6
:104B1000FDF752F804460CB12046E5E74046B8F1EF
:104B2000B40F17D00CDCA8285FD004DCA0283ED03E
:104B3000A42878D14AE0AC2866D0B228F9D173E035
:104B4000B63809286FD2DFE800F07EAB14AB8DAB2E
:104B500023AB9C0001AB0222B421304600F06CF97B
:104B600004466B4602229421304600F065F9074660
:104B700098E001AB0222B821304600F05DF904460E
:104B80006B4602229821304600F056F9074689E02C
:104B900001AB0222BC21304600F04EF904466B46C0
:104BA00002229C21304600F047F907467AE001AB2B
:104BB0000222A021304600F03FF904466B46022253
:104BC0008021304600F038F907466BE001AB022245
:104BD000A421304600F030F904466B4602228421BD
:104BE000304600F029F907465CE001AB0222A8211B
:104BF000304600F021F904466B46022288213046F7
:104C000000F01AF907464DE001AB0222AC21304614
:104C100000F012F904466B4602228C21304600F067
:104C20000BF907463EE03BE001AB0222B2213046E1
:104C300000F002F904466B4602229221304600F051
:104C4000FBF807462EE001AB0222B621304600F009
:104C5000F3F804466B4602229621304600F0ECF849
:104C600007461FE001AB0222BA21304600F0E4F80B
:104C700004466B4602229A21304600F0DDF80746D2
:104C800010E001AB0222BE21304600F0D5F8044608
:104C90006B4602229E21304600F0CEF8074601E026
:104CA0000F2400BF00BF01213046FCF785FF0446FA
:104CB0000CB1204618E7A74200DD3C46204613E72A
:104CC0002DE9F04F8BB007468846914600200890AA
:104CD000387918B908200BB0BDE8F08F4FF00409FF
:104CE00001213846FDF732F90890012307AA28214F
:104CF0003846FCF777F80890089808B10898EAE772
:104D00009DF91C00387300BF00BF9DF81C0000F027
:104D10008000B0B34A464FF0010A00200990504687
:104D20000999FBF72CFB424B4FF283028C46A0FB08
:104D3000031E0CFB03E300FB023208F10100C31762
:104D4000A1FB00CE02FB00E001FB0300CDE900C0A7
:104D50009DF81C0000F07F0040F2F641081AC117D0
:104D600002460B46CDE9020160460199FBF7D6FAEF
:104D7000304A0023CDE90401FBF7D0FA05460E4680
:104D800034E0FFE74A464FF0010B00200A905846F6
:104D90000A99FBF7F4FA264B4FF283028C46A0FBEC
:104DA000031E0CFB03E300FB023208F101004FEA93
:104DB000E07CA1FB003E02FB00E001FB0C00CDE922
:104DC00000309DF91C0000F2F640C11702460B4668
:104DD000CDE90201DDE90001FBF7A0FA154A002345
:104DE000CDE90401FBF79AFA05460E466FF0004143
:104DF0000020491BB04102D26FF0004400E02C4675
:104E0000BC60200E8DF81800200C8DF81900200AC7
:104E10008DF81A00E0B28DF81B0006AB04224FF4A7
:104E20009871384600F008F80890089853E7000099
:104E3000AF756656A08601002DE9F04F85B081461A
:104E4000884616469A46002400270396039800F0E9
:104E500001FC0546002003E01AF800102954401C0C
:104E6000B042F9D3BAF1000F06D12846FEF790FF01
:104E7000062005B0BDE8F08F00214846FDF766F832
:104E800004462CB128460094FEF782FF0098F0E714
:104E90004FEA2820029099F807009DF808108842F0
:104EA00012D09DF8080089F80700012302AA7E218C
:104EB0004846FBF7ABFF04462CB128460094FEF7AA
:104EC00067FF0098D5E700BF2BE008F0FF000190D6
:104ED000012301AA7C214846FBF798FF04462CB128
:104EE00028460094FEF754FF0098C2E7F01B1028F4
:104EF00002D8A6EB070B01E04FF0100BEA195B4656
:104F00007D214846FBF782FF04462CB128460094D9
:104F1000FEF73EFF0098ACE75F4408EB0B001FFA7A
:104F200080F8B742D1D328460494FEF731FF0498A5
:104F30009FE730B5024600201378C3F38003D3B156
:104F4000137803F00303012B02D0022B10D107E0EA
:104F50001388C3F383139B1C0C6823440B6008E085
:104F60000B680225146805EB945423440B6000E0A1
:104F700000BF00BF012030BD70B505460C464FF4A0
:104F80008C71284601F0D2FC38B14FF48C71284660
:104F900001F0D3FC2046FEF7DCFE70BD2DE9F047A2
:104FA00004460E469046002722E0384601F0D2FC27
:104FB0000546384601F0D5FC814620462946425830
:104FC0000AB1012200E0002282B14846D4F804135D
:104FD000014009B1012100E0002139B129462046F4
:104FE00001F0C4FC2846D6E900219047781CC7B2DE
:104FF0004745DADBBDE8F08710B5044622460121BB
:10500000002001F051F8002105E054F8210008B11A
:10501000012010BD491C0029F7D00020F9E700004D
:105020002DE9FF4100272E4800F087FD2C48001F86
:1050300000F083FD2B48806803902B480568039897
:10504000284028490C3101EB800800BF03A94046E5
:10505000FFF76FFF30B10398284022490C3101EB74
:10506000800800E000E0F1E700BF00240AE00398B8
:10507000411C284003911B490C3151F820004DF888
:105080002400641C022CF2D3009800F003000128D5
:105090000DD0022814D1BDF806700421009801EB50
:1050A0009050401E039901EB9000039009E0BDF879
:1050B00006700098C0F3831003990844039000E041
:1050C00000BF00BF0648001F00F030FD064616B1C5
:1050D000044903988860384604B0BDE8F0810000B8
:1050E0007C0C002064080020DC0000202DED108BDB
:1050F000BCB0132001210A4600231D461E4600BFF6
:105100004FF0A04C674641EA420C4CEA830C4CEA53
:10511000052C4CEA064807F5E06C4CF8208000BFEF
:1051200000BF00BF00BF4FF0A0410A46012303FAB1
:1051300000F1C2F8081500BF00BFFDF72FFCFEF715
:10514000ADFD01F04FFFFE48FE490860FBF7ECFCA7
:10515000FDA0FDF785FE0124FCF73CF908B901200C
:1051600000E00020044001210920FBF731FD08B9CF
:10517000012000E0002004400021AC20FCF76CFE80
:1051800008B9012000E0002004400120FBF738FDB1
:1051900008B9012000E0002004400120FBF702FDD7
:1051A00008B9012000E000200440FCF79DFD08B98B
:1051B000012000E000200440FCF7A4FD08B9012014
:1051C00000E0002004401CB1E4A0FDF749FE07E028
:1051D000E6A0FDF745FEEB48FDF742FE00BFFEE707
:1051E0002CE216A8FCF738FDE748007818B1E6482D
:1051F00000780C287DD1BDF8580000F480600028AC
:1052000077DD1F98FBF79EFA41EC1E0B9FEDDF0B3D
:1052100053EC102BFBF727FA41EC180B16A9886A00
:10522000FBF790FA41EC1E0B9FEDD80B53EC102BC3
:10523000FBF719FA41EC190B16A9C86AFBF782FAB9
:1052400041EC1E0B9FEDD10B53EC102BFBF70BFA2F
:1052500041EC1A0B53EC1A2B51EC1A0BFBF791F99A
:1052600041EC1F0B53EC192B51EC190BFBF789F98F
:1052700053EC182BCDE9020151EC180BFBF781F927
:10528000CDE900019DED020B53EC102B9DED000BC1
:1052900051EC100BFBF7CEF853EC1F2BCDE90401BA
:1052A0009DED040B51EC100BFBF7C4F841EC1E0B09
:1052B0009FEDB80B53EC102BFBF760F9CDE906011D
:1052C0009DED060BFEF730FAB0EE40BAF0EE60BA94
:1052D00053EC192B51EC190BFBF753F941EC1D0B57
:1052E00053EC1A2B51EC190BFBF74BF941EC1F0B4C
:1052F00000E08BE153EC182B51EC1B0BFBF741F951
:1053000053EC1F2BCDE906019DED060B51EC100B64
:10531000FBF790F841EC1E0B9FEDA00B53EC102B0C
:10532000FBF72FF9CDE9140153EC182B51EC180BB6
:10533000FBF727F953EC1D2BCDE906019DED060B7C
:1053400051EC100BFBF776F841EC1F0B9FED930B24
:1053500053EC102BFBF715F941EC1E0B9FED8D0B59
:1053600053EC102BFBF70AF9CDE912019DED121B4E
:105370009DED140BFEF7E0F8B0EE40FAF0EE60FAA7
:105380009FED880B53EC102B51EC1F0BFBF7F9F83A
:1053900041EC1E0B9FED850B53EC102BFBF763F9D3
:1053A000CDE9100153EC182B51EC1A0BFBF7E9F87F
:1053B00053EC192BCDE9060151EC1B0BFBF7E1F87F
:1053C00041EC1F0B9DED060B53EC102BFBF7D3F8B4
:1053D00041EC1E0B9FED710B53EC102BFBF7D1F83A
:1053E00041EC1C0B9FED6B0B53EC102B51EC1C0B89
:1053F000FBF7D2F902D29FED670B03E0B0EE4C0A47
:10540000F0EE6C0AB0EE40CAF0EE60CA9FED690B98
:1054100053EC102B51EC1C0BFBF7A6F902D29FEDBD
:10542000650B03E0B0EE4C0AF0EE6C0AB0EE40CA39
:10543000F0EE60CAB0EE4C0AF0EE6C0AFDF760FDCB
:10544000B0EE40FAF0EE60FA9FED560B53EC102BE5
:1054500051EC1F0BFBF795F841EC1E0B9FED530B26
:1054600053EC102BFBF7FFF8CDE90E0153EC192B91
:1054700051EC180BFBF785F841EC1F0B53EC1A2B82
:1054800051EC1B0BFBF77DF853EC1F2BCDE906010C
:105490009DED060B51EC100BFAF7CCFF41EC1E0B07
:1054A0009FED3E0B53EC102BFBF76BF8CDE90C0195
:1054B00053EC1A2B51EC1A0BFBF763F853EC1D2B32
:1054C000CDE906019DED060B51EC100BFAF7B2FF8A
:1054D00041EC1F0B9FED310B53EC102BFBF751F8F8
:1054E00041EC1E0B9FED2B0B53EC102BFBF746F8FA
:1054F000CDE90A019DED0A1B9DED0C0BFEF71CF892
:10550000B0EE40FAF0EE60FA9FED260B53EC102B54
:1055100051EC1F0BFBF735F841EC1E0B9FED230BF5
:1055200053EC102BFBF79FF8CDE908019FED230BFF
:1055300053EC102B9DED100B51EC100B42E00000D2
:1055400030010020041500404465766963652063DE
:105550006F6E6E6563746564210D0A00444D5020C2
:10556000656E61626C6564210D0A0000456E6162C2
:105570006C6520444D50206661696C6564210D0A9C
:105580000000000048B300002600002000000000DA
:105590000000D041000000000000F03F00000000CB
:1055A0000000004000000000008066404AD8124D14
:1055B000FB210940000000000000F0BF333333330B
:1055C0003333D33FFAF736FF41EC1E0BFBF7FCF801
:1055D0001B4908609FED1B0B53EC102B9DED0E0B30
:1055E00051EC100BFAF7C7FF41EC1E0BFBF7ECF880
:1055F000134948609DED080B51EC100BFBF7E4F8E4
:105600000F498860132000F095FD00BF0F48007817
:105610000C2812D00A2505B90EE000BF4FF47A76A7
:1056200006B905E00A4F4FEA86184046B84700BF62
:10563000681E051EF2D100BF00BF00BFD1E500000B
:10564000300100209A9999999999F13F26000020FC
:1056500071770000F0B50B30154D20F007010024E4
:10566000144A0FE003688B420BD38B4205D95E1AB4
:1056700043184768C3E9006700E04368136002C04D
:1056800004E0021D10680028ECD12046002802D159
:10569000286808B10020F0BD064A07481060074A94
:1056A000121A22F00702C0E9002401202860D7E77F
:1056B0002801002024010020140F0020101F0020CA
:1056C0002DE9FF4F87B0044691461E46A246254667
:1056D000BAF806009AF805104843001F0690BAF879
:1056E00006B0301DB0FBFBF00590301DB0FBFBF1A8
:1056F0000BFB11000490D9F8000081190698814233
:1057000002D90698801B01E0D9F800000746C9F8C5
:10571000007003E02D680598401E0590059800284C
:10572000F8D103900498ABEB0008B84501D938468E
:1057300000E04046804623E0039908980844029020
:10574000281D049908440190149828B14246DDE9C7
:105750000110FAF737FE04E04246DDE90101FAF7ED
:1057600031FE002004902D68A7EB08070398404401
:105770000390BB4501D9384600E05846804600BF3B
:10578000002FD9D10BB0BDE8F08F000070B50346F3
:105790000C469CB100F09AFF054600220AE008483A
:1057A00000EB820108881E68B04202D11A60002016
:1057B00070BD521CAA42F2D30520F9E70020F7E79A
:1057C0000000000014480068401C38B913480178F4
:1057D000124808300078C0F3031205E00E48016853
:1057E0004FF08050D0F83421062912D1032A06D078
:1057F000042A06D0052A06D0062A08D105E0012091
:1058000070470120FCE70120FAE70120F8E70120BA
:10581000F6E70020F4E7000030010010E00F00F090
:1058200014480068401C38B9134801781248083001
:105830000078C0F3031205E00E4801684FF0805075
:10584000D0F83421062912D1032A06D0042A06D022
:10585000052A06D0062A08D105E00120704701205C
:10586000FCE70120FAE70120F8E70120F6E7002035
:10587000F4E7000030010010E00F00F01448006869
:10588000401C38B913480178124808300078C0F33A
:10589000031205E00E4801684FF08050D0F8342123
:1058A000062912D1032A06D0042A06D0052A06D0DA
:1058B000062A08D105E0012070470120FCE70120FD
:1058C000FAE70120F8E70120F6E70020F4E70000FE
:1058D00030010010E00F00F00E4802780D4808304B
:1058E0000078C0F30311062A12D1032906D0042937
:1058F00006D0052906D0062908D105E00120704709
:105900000020FCE70020FAE70020F8E70020F6E797
:105910000020F4E7E00F00F00E4802684FF08050DE
:10592000D0F83411062A12D1032906D0042906D052
:10593000052906D0062908D105E00020704700207F
:10594000FCE70020FAE70120F8E70120F6E7002055
:10595000F4E700003001001014480068401C38B91A
:1059600013480178124808300078C0F3031205E0AC
:105970000E4801684FF08050D0F83421062912D12A
:10598000032A06D0042A06D0052A06D0062A08D102
:1059900005E0012070470120FCE70120FAE7012023
:1059A000F8E70120F6E70020F4E7000030010010DE
:1059B000E00F00F00E4802780D4808300078C0F380
:1059C0000311062A12D1032906D0042906D005297D
:1059D00006D0062908D105E0012070470020FCE729
:1059E0000020FAE70020F8E70020F6E70020F4E7BF
:1059F000E00F00F014480068401C38B913480178E3
:105A0000124808300078C0F3031205E00E48016820
:105A10004FF08050D0F83421062912D1032A06D045
:105A2000042A06D0052A06D0062A08D105E001205E
:105A300070470120FCE70120FAE70120F8E7012088
:105A4000F6E70020F4E7000030010010E00F00F05E
:105A50000E4802780D4808300078C0F30311062A7A
:105A600012D1032906D0042906D0052906D006291B
:105A700008D105E0012070470020FCE70020FAE78C
:105A80000020F8E70020F6E70020F4E7E00F00F040
:105A90000E4802780D4808300078C0F30311062A3A
:105AA00012D1032906D0042906D0052906D00629DB
:105AB00008D105E0012070470020FCE70020FAE74C
:105AC0000020F8E70020F6E70020F4E7E00F00F000
:105AD00014480068401C38B913480178124808304F
